:020000040800F2
:100000000028002031190008851700088B17000808
:1000100091170008971700089D17000800000000BE
:10002000000000000000000000000000A31700080E
:10003000AF17000800000000BB170008C717000832
:100040007919000879190008791900087919000848
:100050007919000879190008791900087919000838
:100060007919000879190008791900087919000828
:100070007919000879190008791900087919000818
:100080007919000879190008791900087919000808
:1000900079190008791900087919000879190008F8
:1000A00079190008791900087919000879190008E8
:1000B000D517000879190008000000007919000818
:1000C00079190008000000000000000079190008FC
:1000D00000000000791900087919000800000000EC
:1000E0007919000879190008791900080000000042
:1000F0000000000000000000000000000000000000
:0C01000000000000000000005FF808F1A3
:10010C0010B5054C237833B9044B13B10448AFF345
:10011C0000800123237010BD5C0000200000000053
:10012C00A82F000808B5034B1BB103490348AFF3D4
:10013C00008008BD0000000060000020A82F00080F
:10014C0080B483B000AF7860094A7B6852F82330E2
:10015C00012B06D1064A7B68002142F823100123AB
:10016C0000E0002318460C37BD4680BC704700BF2A
:10017C007800002080B582B000AF00237B6012E0D5
:10018C00454A7B6852F8232044497B6841F8232078
:10019C00434A7B6852F823203F497B6841F823206F
:1001AC007B6801337B607B68022BE9DD80213D4855
:1001BC0001F0C8FE03461A46394B1A604FF48071A1
:1001CC00384801F0BFFE03461A46354B5A604FF4CF
:1001DC000071344801F0B6FE03461A46304B9A6063
:1001EC0000233B6050E02C4A3B6852F823202C49FA
:1001FC003B6851F823309A4243D1284A3B6852F865
:10020C00232025493B6851F823309A4239D1234A9F
:10021C003B6852F8232024493B6851F823309A421A
:10022C0017D01E4A3B6852F823201F493B6841F8FF
:10023C0023201D4A3B6852F82330002B21D11B4B45
:10024C004FF4FA721A601A4A3B68012142F82310E3
:10025C0017E0164B1B68013B144A1360134B1B68C9
:10026C00002B0ED1114B4FF4FA721A600E4A3B68F8
:10027C0052F82330002B04D10D4A3B68012142F87F
:10028C0023103B6801333B603B68022BABDD00BFA6
:10029C0000BF0837BD4680BD0C00002018000020B0
:1002AC0000000020000C0140240000203000002041
:1002BC007800002080B500AF874B1B68013B042BF6
:1002CC0000F2158201A252F823F000BFED020008E3
:1002DC0025030008050400080D050008ED050008BD
:1002EC007D4B02221A607D4B1B687D4A13607D4B4F
:1002FC001B687D4A1360642001F046F9012001F06F
:10030C0057F901F0B9FA764B1B68774A1268114617
:10031C00184600F02BFCF3E101F066FA734B1B68F6
:10032C00012B12D1192001F043F9714B1B681846AF
:10033C0000F0D0FD6E4B1B680133042293FBF2F1ED
:10034C0002FB01F29B1A6A4A13606A4B1B68012B71
:10035C0034D1634B1B68013B614A1360624B1B68D1
:10036C00013B614A13605E4B1B685F4A1268114681
:10037C00184600F0FBFB642001F006F9584B1B6893
:10038C00002B03D1554B1B68554A1360564B1B6809
:10039C00002B13D1584B1B68534A13604E4B03224E
:1003AC001A6001F069FA4E4B1B684F4A12681146ED
:1003BC00184600F0DBFB642001F0E6F80120FFF7A3
:1003CC00BFFE0346002B04D0434B06221A6001F0FB
:1003DC0053FA0020FFF7B4FE0346002B00F089818E
:1003EC003D4B0A221A60012001F0F6F8434B012222
:1003FC001A6001F041FA7CE101F008FA3B4B1B68F2
:10040C00012B12D1192001F0D3F8394B1B68184677
:10041C0000F060FD364B1B680133042293FBF2F1B4
:10042C0002FB01F29B1A324A1360324B1B68012B00
:10043C0034D1642001F0A8F8294B1B68013B284AF1
:10044C001360294B1B68013B274A1360244B1B6824
:10045C00254A12681146184600F088FB204B1B6891
:10046C00002B03D11D4B1B681D4A13601E4B1B68D0
:10047C00002B13D11B4B1B681B4A1360164B042219
:10048C001A6001F0F9F9642001F07EF8164B1B6834
:10049C00134A12681146184600F068FB0120FFF75A
:1004AC004FFE0346012B04D10B4B06221A6001F0C0
:1004BC00E3F90020FFF744FE0346002B00F01B81FC
:1004CC00054B0A221A60012001F086F80B4B012221
:1004DC001A6001F0D1F90EE13C0000204000002030
:1004EC00840000204400002088000020A000002090
:1004FC008C00002098000020480000204C000020B8
:10050C0001F096F97F4B1B68012B12D1192001F0D9
:10051C004FF87D4B1B68184600F0DCFC7A4B1B68CF
:10052C000133042293FBF2F102FB01F29B1A764A8F
:10053C001360764B1B68012B34D1642001F024F836
:10054C00734B1B68013B724A1360724B1B68013B77
:10055C00704A13606F4B1B686D4A1268114618463F
:10056C0000F004FB6A4B1B68002B03D16A4B1B6821
:10057C00674A1360674B1B68002B13D1674B1B68D2
:10058C00644A1360664B05221A60624B1B68604A12
:10059C0012681146184600F0E9FA01F06DF9642072
:1005AC0000F0F2FF0120FFF7CBFD0346012B04D135
:1005BC005B4B06221A6001F05FF90020FFF7C0FDCB
:1005CC000346002B00F09980554B0A221A6001203B
:1005DC0001F002F8534B01221A6001F04DF98CE046
:1005EC0001F038F9474B1B68012B12D1192000F090
:1005FC00DFFF454B1B68184600F06CFC424B1B6838
:10060C000133042293FBF2F102FB01F29B1A3E4AE6
:10061C0013603E4B1B68012B4CD1642000F0B4FFDF
:10062C003B4B1B68013B3A4A13603A4B1B68013B3E
:10063C00384A1360374B1B68354A12681146184606
:10064C0000F094FA334B1B68002B03DD304B1B6816
:10065C00002B0FDC304B1B682D4A1360324B1B6890
:10066C002C4A13602E4B02221A6001F005F964200B
:10067C0000F08AFF264B1B68002B03D1264B1B680E
:10068C00234A1360234B1B68002B13D1264B1B688A
:10069C00204A1360224B02221A6001F0EDF81C4B29
:1006AC001B681C4A12681146184600F05FFA642059
:1006BC0000F06AFF0120FFF743FD0346012B04D134
:1006CC00174B06221A6001F0D7F80020FFF738FD0F
:1006DC000346002B13D0124B0A221A60012000F0A3
:1006EC007BFF104B01221A6001F0C6F807E000BF37
:1006FC0006E000BF04E000BF02E000BF00E000BF66
:10070C0000BF80BDA00000208C00002098000020BD
:10071C0084000020880000204000002048000020B9
:10072C003C0000204C0000204400002080B500AFAD
:10073C00564B1B68063B032B00F29C8001A252F81F
:10074C0023F000BF61070008A9070008F1070008A3
:10075C003908000801F048F80020FFF7F1FC0346C7
:10076C00012B04D1494B0A221A6001F085F80120B3
:10077C00FFF7E6FC0346012B04D1444B07221A6019
:10078C0001F07AF80220FFF7DBFC0346012B73D152
:10079C003E4B02221A6001F06FF86DE001F036F862
:1007AC000020FFF7CDFC0346012B04D1374B0A2266
:1007BC001A6001F061F80120FFF7C2FC0346012B1F
:1007CC0004D1324B08221A6001F056F80220FFF7D0
:1007DC00B7FC0346012B51D12C4B03221A6001F0BC
:1007EC004BF84BE001F024F80020FFF7A9FC03467E
:1007FC00012B04D1254B0A221A6001F03DF801208F
:10080C00FFF79EFC0346012B04D1204B09221A60F2
:10081C0001F032F80220FFF793FC0346012B2FD195
:10082C001A4B04221A6001F027F829E001F012F8A3
:10083C000020FFF785FC0346012B04D1134B0A2241
:10084C001A6001F019F80120FFF77AFC0346012B1E
:10085C0004D10E4B06221A6001F00EF80220FFF7AD
:10086C006FFC0346012B0DD1084B05221A6001F0D9
:10087C0003F807E000BF06E000BF04E000BF02E0A1
:10088C0000BF00E000BF00BF80BD00BF3C000020E7
:10089C0080B500AFA94B1B680C2B00F0DF800C2B34
:1008AC0000F343810A2B02D00B2B6CD03DE1A44BFF
:1008BC001B681946022000F059F9A24B1B68012B4A
:1008CC0013D1192000F074FE9F4B1B68184600F0E2
:1008DC0001FB9D4B1B6801339B4A13609A4B1B68B1
:1008EC00032B02DD984B00221A60984B1B68012BDE
:1008FC0004D100F0E7FF322000F06EFE0020FFF77D
:10090C001FFC0346012B07D18C4B0B221A608C4B1E
:10091C0001221A6000F0B0FF0120FFF711FC034622
:10092C00012B0BD1864B1B680133854A1360844B1A
:10093C001B68632B02DD824B01221A600220FFF739
:10094C00FFFB0346012B40F0F2807D4B1B68804A75
:10095C0013607F4B1A6813465B0013447D4A82FB7D
:10096C0003125210DB17D31A7B4A1360784B1A68A8
:10097C00794B1B68D31A794A1360704B01221A60A9
:10098C0000F07AFFD3E0764B1B686D4A1268114673
:10099C00184600F0EBF86D4B1B68012B04D100F0EE
:1009AC00A1FF322000F018FE664B1B68012B12D100
:1009BC00192000F0FDFD644B1B68184600F08AFA04
:1009CC00614B1B680133042293FBF2F102FB01F231
:1009DC009B1A5D4A13600020FFF7B2FB0346012B04
:1009EC0007D1564B0C221A60554B01221A6000F0AD
:1009FC0043FF0120FFF7A4FB0346012B0BD1504B07
:100A0C001B6801334E4A13604D4B1B68632B02DD90
:100A1C004B4B01221A600220FFF792FB0346012B7D
:100A2C0040F08780464B1B684C4A13604B4B1A684E
:100A3C0013465B001344DA0F13445B101A46464B03
:100A4C001A60454B1A68454B1B681344404A1360A7
:100A5C003A4B02221A6000F00FFF6AE0414B1B6810
:100A6C00374A12681146184600F080F8374B1B685D
:100A7C00012B04D100F046FF322000F0ADFD314BCC
:100A8C001B68012B12D1192000F092FD2E4B1B6814
:100A9C00184600F01FFA2C4B1B680133042293FB01
:100AAC00F2F102FB01F29B1A274A13600020FFF7B8
:100ABC0047FB0346012B05D1204B0A221A60204B21
:100ACC0001221A600120FFF73BFB0346012B0BD1DF
:100ADC001B4B1B6801331A4A1360194B1B68632BA1
:100AEC0002DD174B01221A600220FFF729FB034697
:100AFC00012B20D1124B1B68174A1360164B1B6835
:100B0C005B00194A82FB0312DB17D31A134A1360DA
:100B1C00114B1A68114B1B6813440D4A1360074B99
:100B2C0002221A6000F0A8FE05E000BF04E000BF3E
:100B3C0002E000BF00E000BF00BF80BD3C00002011
:100B4C004C000020A000002090000020A8000020F5
:100B5C0040000020676666664400002048000020C4
:100B6C0034000020380000205655555580B483B011
:100B7C0000AF786039607B68184A82FB03129210D0
:100B8C00DB17D31A164A13607968144B83FB0123C5
:100B9C009A10CB17D21A13469B0013445B00CA1A47
:100BAC000F4B5A603B680D4A82FB03129210DB1705
:100BBC00D31A0B4A93603968084B83FB01239A10B4
:100BCC00CB17D21A13469B0013445B00CA1A044B72
:100BDC00DA6000BF0C37BD4680BC7047676666663E
:100BEC00B400002080B582B000AF78600122802173
:100BFC00B74801F0BEF901224FF48071B44801F0FE
:100C0C00B8F901224FF40071B14801F0B2F9012298
:100C1C004FF48061AE4801F0ACF901224FF4006151
:100C2C00AB4801F0A6F901224FF48051A84801F01D
:100C3C00A0F901224FF40051A54801F09AF97B6804
:100C4C00092B00F23F8101A252F823F0810C00081D
:100C5C00C90C0008E30C00081F0D00085B0D000810
:100C6C008D0D0008C90D0008110E0008350E000886
:100C7C00890E000800228021954801F07AF90022A3
:100C8C004FF48071924801F074F900224FF4007116
:100C9C008F4801F06EF900224FF480618C4801F00E
:100CAC0068F900224FF40061894801F062F90022D2
:100CBC004FF48051864801F05CF904E100224FF4B6
:100CCC008071834801F055F900224FF4007180487F
:100CDC0001F04FF9F7E0002280217D4801F049F93D
:100CEC0000224FF480717A4801F043F900224FF44E
:100CFC008061774801F03DF900224FF4006174489F
:100D0C0001F037F900224FF40051714801F031F92C
:100D1C00D9E0002280216E4801F02BF900224FF41B
:100D2C0080716B4801F025F900224FF4007168487E
:100D3C0001F01FF900224FF48061654801F019F9A8
:100D4C0000224FF40051624801F013F9BBE000227D
:100D5C004FF480715E4801F00CF900224FF40071E1
:100D6C005B4801F006F900224FF48051584801F01D
:100D7C0000F900224FF40051554801F0FAF8A2E0B6
:100D8C0000228021524801F0F4F800224FF4007147
:100D9C004F4801F0EEF800224FF480614C4801F00E
:100DAC00E8F800224FF48051494801F0E2F80022A3
:100DBC004FF40051464801F0DCF884E00022802119
:100DCC00434801F0D6F800224FF40071404801F07E
:100DDC00D0F800224FF480613D4801F0CAF800229F
:100DEC004FF400613A4801F0C4F800224FF48051EE
:100DFC00374801F0BEF800224FF40051344801F09E
:100E0C00B8F860E000228021314801F0B2F80022ED
:100E1C004FF480712E4801F0ACF800224FF40071B1
:100E2C002B4801F0A6F84EE000228021284801F062
:100E3C00A0F800224FF48071254801F09AF80022A6
:100E4C004FF40071224801F094F800224FF48061B5
:100E5C001F4801F08EF800224FF400611C4801F08D
:100E6C0088F800224FF48051194801F082F80022D2
:100E7C004FF40051164801F07CF824E00022802148
:100E8C00134801F076F800224FF48071104801F0FD
:100E9C0070F800224FF400710D4801F06AF800223E
:100EAC004FF480610A4801F064F800224FF480513D
:100EBC00074801F05EF800224FF40051044801F09D
:100ECC0058F800E000BF00BF0837BD4680BD00BF2A
:100EDC000008014080B582B000AF78600122082183
:100EEC00464801F046F801221021444801F041F82F
:100EFC0001222021414801F03CF8012240213F48C9
:100F0C0001F037F87B68032B72D801A252F823F05A
:100F1C002D0F0008610F0008950F0008C90F00087D
:100F2C0000220821354801F024F801221021334811
:100F3C0001F01FF801222021304801F01AF801229B
:100F4C0040212E4801F015F82D4B1B681846FFF771
:100F5C0049FE4EE001220821284801F00AF800223F
:100F6C001021264801F005F801222021234801F028
:100F7C0000F801224021214800F0FBFF204B5B6868
:100F8C001846FFF72FFE34E0012208211B4800F021
:100F9C00F0FF01221021194800F0EBFF0022202164
:100FAC00164800F0E6FF01224021144800F0E1FF52
:100FBC00134B9B681846FFF715FE1AE00122082117
:100FCC000E4800F0D6FF012210210C4800F0D1FF92
:100FDC0001222021094800F0CCFF002240210748C3
:100FEC0000F0C7FF064BDB681846FFF7FBFD00E07F
:100FFC0000BF00BF0837BD4680BD00BF000C0140DC
:10100C00B400002080B500AF0221024800F0C9FFF7
:10101C0000BF80BD0008014080B500AF00F0A8FC07
:10102C0000F02AF800F0B0F800F062F80D4801F07A
:10103C00FDFB00F01EF9642232210B4800F02EF962
:10104C0001220021094800F029F901220021084859
:10105C0000F024F901220021064800F01FF900F0ED
:10106C0039FAFCE72801002011100008C102000821
:10107C00390700089D08000880B590B000AF07F153
:10108C00180328220021184601F080FF3B1D002286
:10109C001A605A609A60DA601A610223BB610123FC
:1010AC00BB621023FB6200237B6307F11803184615
:1010BC0000F090FF0346002B01D000F0D5F80F2371
:1010CC007B600023BB600023FB6000233B6100239B
:1010DC007B613B1D0021184601F0FCF90346002BF7
:1010EC0001D000F0C1F800BF4037BD4680BD000004
:1010FC0080B586B000AF07F1080300221A605A6071
:10110C009A60DA603B4600221A605A601D4B4FF021
:10111C0080421A601B4B41F63F725A60194B0022F9
:10112C009A60184B0922DA60164B00221A61154B93
:10113C0000229A61134801F029FB0346002B01D0D1
:10114C0000F092F84FF48053BB6007F10803194686
:10115C000C4801F0A7FC0346002B01D000F084F8EA
:10116C0000233B6000237B603B461946054801F099
:10117C007FFE0346002B01D000F076F800BF183735
:10118C00BD4680BD2801002080B586B000AF07F1B8
:10119C00080300221A605A609A60DA60284B9B6937
:1011AC00274A43F004039361254B9B6903F0040326
:1011BC007B607B68224B9B69214A43F00803936157
:1011CC001F4B9B6903F008033B603B68002243F60E
:1011DC00F2711C4800F0CDFE00227F211A4800F06D
:1011EC00C8FE43F6F273BB600123FB6000233B6136
:1011FC0002237B6107F108031946124800F028FD11
:10120C007F23BB600123FB6000233B6102237B61D6
:10121C0007F1080319460C4800F01AFD4FF46073EF
:10122C00BB600023FB6000233B6107F108031946F8
:10123C00054800F00DFD00BF1837BD4680BD00BF4E
:10124C000010024000080140000C014080B582B043
:10125C0000AF786000F0D4F9FEF78CFF00F0CCF80A
:10126C0000BF0837BD4680BD80B400AF72B600BF6A
:10127C00FEE780B582B000AF0023FB7106E0FB797E
:10128C00184600F059F8FB790133FB71FB79042BFC
:10129C00F5D900BF00BF0837BD4680BD80B487B00C
:1012AC0000AFF860B9607A600023FB7502E0FB7D4B
:1012BC000133FB75FA7D1F4913469B0013449B00B9
:1012CC000B441B68002B02D0FB7D042BEFD9FB7D5C
:1012DC00042B01D9052327E0FA7D164913469B0000
:1012EC0013449B000B44FA681A60FA7D11491346AB
:1012FC009B0013449B000B440433BA681A60FA7DBC
:10130C000C4913469B0013449B000B4408337A682A
:10131C001A60FA7D074913469B0013449B000B444B
:10132C000C3300221A70FB7D18461C37BD4680BC5E
:10133C00704700BFC400002080B483B000AF786059
:10134C007B68002B08DB2A4B1B687A689A4203DA0D
:10135C00274B1B68002B03D1254B1B68DBB241E0EC
:10136C00234B1B68012B10D1224B00221A60214BFE
:10137C0000225A601F4B00229A601E4B00221A73E7
:10138C001B4B00221A6001232CE01A497A68134681
:10139C009B0013449B000B4400221A6015497A6889
:1013AC0013469B0013449B000B44043300221A6029
:1013BC0010497A6813469B0013449B000B44083376
:1013CC0000221A600B497A6813469B0013449B0059
:1013DC000B440C3300221A70054B1B68013B044A6A
:1013EC001360012318460C37BD4680BC704700BF04
:1013FC0070010020C400002080B483B000AF002333
:10140C00FB715BE0FA79324913469B0013449B0055
:10141C000B441B68002B4ED0FA792D4913469B00C8
:10142C0013449B000B4404331B68002B31D1FA7915
:10143C00274913469B0013449B000B440C331B7829
:10144C000133D8B2224913469B0013449B000B4432
:10145C000C3302461A70FA791D4913469B0013444B
:10146C009B000B4408331B68002B24D0F979FA79C4
:10147C0017480B469B000B449B0003440833196828
:10148C00134813469B0013449B0003440433196018
:10149C0011E0FA790E4913469B0013449B000B4450
:1014AC0004331B68591E0A4813469B0013449B00C7
:1014BC00034404331960FB790133FB71FB79042B72
:1014CC00A0D900BF00BF0C37BD4680BC704700BF21
:1014DC00C400002080B586B000AF0023FB7549E046
:1014EC00FA7D284913469B0013449B000B440C3394
:1014FC001B78002B3BD0FA7D224913469B001344EA
:10150C009B000B441B689847FA7D1E4913469B00B1
:10151C0013449B000B440C331B78013BD8B2194984
:10152C0013469B0013449B000B440C3302461A7069
:10153C00FA7D144913469B0013449B000B4408335B
:10154C001B68002B04D1FB7D1846FFF7F5FE0EE05F
:10155C000C4B9B68BB600B4B1B683B600020FFF780
:10156C00EBFE3B68B968BA681846FFF797FEFB7D3F
:10157C000133FB75FB7D042BB2D900BF00BF1837BC
:10158C00BD4680BDC400002080B483B000AF78603D
:10159C00054A7B681360054B00221A6000BF0C37AC
:1015AC00BD4680BC704700BF94000020980000200E
:1015BC0080B483B000AF7860054A7B681360054B3C
:1015CC0000221A6000BF0C37BD4680BC704700BFBC
:1015DC009C000020A000002080B483B000AF786095
:1015EC00054A7B681360054B00221A6000BF0C375C
:1015FC00BD4680BC704700BFA4000020A80000209E
:10160C0080B400AF294B1B68002B0CDD274B1B68EB
:10161C00013B264A1360254B1B68002B06DC244B30
:10162C0001221A6002E0224B01221A60214B1B6836
:10163C00002B0CDD1F4B1B68013B1E4A13601D4B1E
:10164C001B68002B06DC1C4B01221A6002E01A4BB3
:10165C0001221A60194B1B68002B0CDD174B1B6801
:10166C00013B164A1360154B1B68002B06DC144B10
:10167C0001221A6002E0124B01221A60114B1B6806
:10168C00002B0CDD0F4B1B68013B0E4A13600D4BFE
:10169C001B68002B06D10C4B01221A6002E00A4B8E
:1016AC0001221A6000BFBD4680BC70479400002028
:1016BC00980000209C000020A0000020A400002026
:1016CC00A8000020AC000020B000002080B485B041
:1016DC0000AF154B9B69144A43F001039361124B05
:1016EC009B6903F00103BB60BB680F4BDB690E4ABF
:1016FC0043F08053D3610C4BDB6903F080537B6068
:10170C007B680A4B5B68FB60FB6823F0E063FB6063
:10171C00FB6843F08063FB60044AFB68536000BFC6
:10172C001437BD4680BC70470010024000000140D9
:10173C0080B584B000AF78607B681B68B3F1804FD4
:10174C0013D10C4BDB690B4A43F00103D361094BFA
:10175C00DB6903F00103FB60FB68002200211C2005
:10176C0000F03FFA1C2000F058FA00BF1037BD46BD
:10177C0080BD00BF0010024080B400AFFEE780B413
:10178C0000AFFEE780B400AFFEE780B400AFFEE729
:10179C0080B400AFFEE780B400AF00BFBD4680BC94
:1017AC00704780B400AF00BFBD4680BC704780B4AA
:1017BC0000AF00BFBD4680BC704780B500AF00F0E5
:1017CC001DF900BF80BD000080B500AF024801F0DC
:1017DC0079F800BF80BD00BF2801002080B400AFA5
:1017EC0000BFBD4680BC704780B500AF0122102100
:1017FC00044800F0BEFB01220421034800F0B9FBB1
:10180C0000BF80BD00080140000C014080B500AF56
:10181C0001221021044800F0ACFB012202210348F4
:10182C0000F0A7FB00BF80BD00080140000C014088
:10183C0080B500AF01224021044800F09AFB012240
:10184C000121034800F095FB00BF80BD000801405A
:10185C00000C014080B500AF01222021044800F0AB
:10186C0088FB01220121034800F083FB00BF80BDEF
:10187C0000080140000C014080B500AF002210218F
:10188C000E4800F076FB002240210C4800F071FB62
:10189C0000222021094800F06CFB0022012108489D
:1018AC0000F067FB00220421054800F062FB0022D7
:1018BC000221034800F05DFB00BF80BD0008014021
:1018CC00000C014080B500AF1021044800F069FB0A
:1018DC000121034800F065FB00BF80BD00080140FA
:1018EC00000C014080B500AF2021044800F059FBEA
:1018FC000221034800F055FB00BF80BD00080140E9
:10190C00000C014080B500AF4021044800F049FBB9
:10191C000421034800F045FB00BF80BD00080140D6
:10192C00000C0140FFF75AFF0B480C490C4A0023EE
:10193C0002E0D458C4500433C4188C42F9D3094A79
:10194C00094C002301E013600432A242FBD301F0E6
:10195C00F9FAFFF761FB7047000000205C000020E3
:10196C00EC2F00085C00002078010020FEE700004E
:10197C0080B500AF084B1B68074A43F01003136097
:10198C00032000F023F90F2000F008F8FFF79EFE6B
:10199C000023184680BD00BF0020024080B582B0F5
:1019AC0000AF7860124B1A68124B1B7819464FF433
:1019BC007A73B3FBF1F3B2FBF3F3184600F03BF987
:1019CC000346002B01D001230EE07B680F2B0AD8B5
:1019DC00002279684FF0FF3000F003F9064A7B686B
:1019EC001360002300E0012318460837BD4680BD74
:1019FC0050000020580000205400002080B400AF9C
:101A0C00054B1B781A46054B1B681344034A13609D
:101A1C0000BFBD4680BC70475800002074010020F8
:101A2C0080B400AF024B1B681846BD4680BC7047A3
:101A3C007401002080B485B000AF78607B6803F03F
:101A4C000703FB600C4BDB68BB60BA684FF6FF0307
:101A5C001340BB60FB681A02BB68134343F0BF63BF
:101A6C0043F40033BB60044ABB68D36000BF143737
:101A7C00BD4680BC704700BF00ED00E080B400AFF5
:101A8C00044BDB681B0A03F007031846BD4680BCF9
:101A9C00704700BF00ED00E080B483B000AF034698
:101AAC00FB7197F90730002B0BDBFB7903F01F025E
:101ABC00064997F907305B09012000FA02F241F858
:101ACC00232000BF0C37BD4680BC704700E100E00E
:101ADC0080B483B000AF03463960FB7197F90730CF
:101AEC00002B0ADB3B68DAB20C4997F9073012017C
:101AFC00D2B20B4483F800230AE03B68DAB20849FF
:101B0C00FB7903F00F03043B1201D2B20B441A769B
:101B1C0000BF0C37BD4680BC704700BF00E100E041
:101B2C0000ED00E080B489B000AFF860B9607A6075
:101B3C00FB6803F00703FB61FB69C3F10703042B8C
:101B4C0028BF0423BB61FB690433062B02D9FB6954
:101B5C00033B00E000237B614FF0FF32BB6902FACC
:101B6C0003F3DA43BB681A407B699A404FF0FF31AC
:101B7C007B6901FA03F3D9437B680B401343184686
:101B8C002437BD4680BC704780B582B000AF78600A
:101B9C007B68013BB3F1807F01D301230FE00A4A3C
:101BAC007B68013B53600F214FF0FF30FFF790FF34
:101BBC00054B00229A60044B07221A60002318463A
:101BCC000837BD4680BD00BF10E000E080B582B094
:101BDC0000AF78607868FFF72DFF00BF0837BD466F
:101BEC0080BD80B586B000AF0346B9607A60FB73E8
:101BFC0000237B61FFF742FF78617A68B9687869E6
:101C0C00FFF790FF024697F90F3011461846FFF781
:101C1C005FFF00BF1837BD4680BD80B582B000AFF6
:101C2C000346FB7197F907301846FFF735FF00BFE5
:101C3C000837BD4680BD80B582B000AF786078684B
:101C4C00FFF7A2FF034618460837BD4680BD0000CB
:101C5C0080B48BB000AF7860396000237B620023C6
:101C6C003B6248E101227B6A02FA03F3FB613B68A9
:101C7C001B68FA691340BB61BA69FB699A4240F070
:101C8C0037813B685B68A34A93425ED0A14A93427A
:101C9C0075D8A14A934258D09F4A93426FD89F4A15
:101CAC00934252D09D4A934269D89D4A93424CD05C
:101CBC009B4A934263D89B4A934246D0994A93429B
:101CCC005DD8122B2AD8122B59D801A252F823F026
:101CDC00571D0008311D0008431D0008851D000814
:101CEC008B1D00088B1D00088B1D00088B1D000828
:101CFC008B1D00088B1D00088B1D00088B1D000818
:101D0C008B1D00088B1D00088B1D00088B1D000807
:101D1C008B1D0008391D00084D1D0008824A934296
:101D2C0013D02CE03B68DB683B6229E03B68DB6846
:101D3C0004333B6224E03B68DB6808333B621FE002
:101D4C003B68DB680C333B621AE03B689B68002BFA
:101D5C0002D104233B6213E03B689B68012B05D145
:101D6C0008233B627B68FA691A6109E008233B622D
:101D7C007B68FA695A6103E000233B6200E000BF14
:101D8C00BB69FF2B01D87B6801E07B6804337B6166
:101D9C00BB69FF2B02D87B6A9B0002E07B6A083B85
:101DAC009B003B617B691A680F213B6901FA03F3C5
:101DBC00DB431A40396A3B6901FA03F31A437B6926
:101DCC001A603B685B6803F08053002B00F0908036
:101DDC00564B9B69554A43F001039361534B9B69E6
:101DEC0003F00103BB60BB68514A7B6A9B0802335A
:101DFC0052F82330FB607B6A03F003039B000F2235
:101E0C0002FA03F3DB43FA681340FB607B68494A30
:101E1C0093420DD07B68484A934207D07B68474A6F
:101E2C00934201D1022304E0032302E0012300E0EA
:101E3C0000237A6A02F0030292009340FA6813437B
:101E4C00FB603B497B6A9B080233FA6841F823200C
:101E5C003B685B6803F48013002B06D0384B9A6800
:101E6C003749BB6913438B6006E0354B9A68BB69F5
:101E7C00DB43334913408B603B685B6803F400130E
:101E8C00002B06D02E4BDA682D49BB691343CB606F
:101E9C0006E02B4BDA68BB69DB4329491340CB6066
:101EAC003B685B6803F40033002B06D0244B5A6864
:101EBC002349BB6913434B6006E0214B5A68BB694D
:101ECC00DB431F4913404B603B685B6803F4803372
:101EDC00002B06D01A4B1A681949BB6913430B60C7
:101EEC0006E0174B1A68BB69DB43154913400B60BE
:101EFC007B6A01337B623B681A687B6A22FA03F3C4
:101F0C00002B7FF4AFAE00BF00BF2C37BD4680BCAA
:101F1C00704700BF0000321000003110000022108A
:101F2C0000002110000012100000111000100240DF
:101F3C000000014000080140000C0140001001406D
:101F4C000004014080B485B000AF78600B467B8004
:101F5C007B689A687B881340002B02D00123FB73AB
:101F6C0001E00023FB73FB7B18461437BD4680BC95
:101F7C00704780B483B000AF78600B467B8013460B
:101F8C007B707B78002B03D07A887B681A6103E026
:101F9C007B881A047B681A6100BF0C37BD4680BC75
:101FAC00704780B485B000AF78600B467B807B684F
:101FBC00DB68FB607A88FB6813401A04FB68D94322
:101FCC007B880B401A437B681A6100BF1437BD46EF
:101FDC0080BC704780B586B000AF78607B68002B02
:101FEC0001D101236CE27B681B6803F00103002B19
:101FFC0000F08780924B5B6803F00C03042B0CD031
:10200C008F4B5B6803F00C03082B12D18C4B5B6875
:10201C0003F48033B3F5803F0BD1894B1B6803F479
:10202C000033002B6CD07B685B68002B68D10123DC
:10203C0046E27B685B68B3F5803F06D1804B1B683A
:10204C007F4A43F4803313602EE07B685B68002B7F
:10205C000CD17B4B1B687A4A23F480331360784B8A
:10206C001B68774A23F4802313601DE07B685B6850
:10207C00B3F5A02F0CD1724B1B68714A43F480232B
:10208C0013606F4B1B686E4A43F4803313600BE094
:10209C006B4B1B686A4A23F480331360684B1B68D4
:1020AC00674A23F4802313607B685B68002B13D092
:1020BC00FFF7B6FC386108E0FFF7B2FC02463B695B
:1020CC00D31A642B01D90323FAE15D4B1B6803F48B
:1020DC000033002BF0D014E0FFF7A2FC386108E0CD
:1020EC00FFF79EFC02463B69D31A642B01D90323EC
:1020FC00E6E1534B1B6803F40033002BF0D100E0F6
:10210C0000BF7B681B6803F00203002B63D04C4BB1
:10211C005B6803F00C03002B0BD0494B5B6803F09E
:10212C000C03082B1CD1464B5B6803F48033002B4B
:10213C0016D1434B1B6803F00203002B05D07B68C0
:10214C001B69012B01D00123BAE13D4B1B6823F025
:10215C00F8027B685B69DB00394913430B603AE09A
:10216C007B681B69002B20D0364B01221A60FFF7CD
:10217C0057FC386108E0FFF753FC02463B69D31A61
:10218C00022B01D903239BE12D4B1B6803F00203A7
:10219C00002BF0D02A4B1B6823F0F8027B685B699C
:1021AC00DB00274913430B6015E0264B00221A6015
:1021BC00FFF736FC386108E0FFF732FC02463B695A
:1021CC00D31A022B01D903237AE11D4B1B6803F0B0
:1021DC000203002BF0D17B681B6803F00803002B73
:1021EC003AD07B689B69002B19D0174B01221A60DF
:1021FC00FFF716FC386108E0FFF712FC02463B695A
:10220C00D31A022B01D903235AE10D4B5B6A03F05D
:10221C000203002BF0D0012000F09AFA1CE00A4BCC
:10222C0000221A60FFF7FCFB38610FE0FFF7F8FBA8
:10223C0002463B69D31A022B08D9032340E100BFA5
:10224C000010024000004242800442429E4B5B6AF6
:10225C0003F00203002BE9D17B681B6803F0040335
:10226C00002B00F0A6800023FB75974BDB6903F075
:10227C008053002B0DD1944BDB69934A43F0805370
:10228C00D361914BDB6903F08053BB60BB680123C6
:10229C00FB758E4B1B6803F48073002B18D18B4B92
:1022AC001B688A4A43F480731360FFF7B9FB3861EB
:1022BC0008E0FFF7B5FB02463B69D31A642B01D942
:1022CC000323FDE0814B1B6803F48073002BF0D0DB
:1022DC007B68DB68012B06D17B4B1B6A7A4A43F087
:1022EC00010313622DE07B68DB68002B0CD1764B6D
:1022FC001B6A754A23F001031362734B1B6A724A03
:10230C0023F0040313621CE07B68DB68052B0CD103
:10231C006D4B1B6A6C4A43F0040313626A4B1B6AD5
:10232C00694A43F0010313620BE0674B1B6A664A70
:10233C0023F001031362644B1B6A634A23F004030A
:10234C0013627B68DB68002B15D0FFF769FB3861E3
:10235C000AE0FFF765FB02463B69D31A41F288326B
:10236C00934201D90323ABE0574B1B6A03F00203E2
:10237C00002BEED014E0FFF753FB38610AE0FFF7B7
:10238C004FFB02463B69D31A41F28832934201D982
:10239C00032395E04C4B1B6A03F00203002BEED198
:1023AC00FB7D012B05D1484BDB69474A23F0805359
:1023BC00D3617B68DB69002B00F08180424B5B684A
:1023CC0003F00C03082B61D07B68DB69022B46D130
:1023DC003F4B00221A60FFF723FB386108E0FFF740
:1023EC001FFB02463B69D31A022B01D9032367E07A
:1023FC00354B1B6803F00073002BF0D17B681B6A14
:10240C00B3F5803F08D1304B5B6823F400327B6816
:10241C009B682D4913434B602B4B5B6823F4741260
:10242C007B68196A7B685B6A0B43274913434B60D3
:10243C00274B01221A60FFF7F3FA386108E0FFF727
:10244C00EFFA02463B69D31A022B01D9032337E07A
:10245C001D4B1B6803F00073002BF0D02FE01C4BBE
:10246C0000221A60FFF7DCFA386108E0FFF7D8FAAF
:10247C0002463B69D31A022B01D9032320E0124BED
:10248C001B6803F00073002BF0D118E07B68DB694C
:10249C00012B01D1012313E00B4B5B68FB60FB6844
:1024AC0003F480327B681B6A9A4206D1FB6803F402
:1024BC0070127B685B6A9A4201D0012300E0002312
:1024CC0018461837BD4680BD001002400070004011
:1024DC006000424280B584B000AF786039607B68A0
:1024EC00002B01D10123D0E06A4B1B6803F00703DA
:1024FC003A689A4210D9674B1B6823F0070265496A
:10250C003B6813430B60634B1B6803F007033A688B
:10251C009A4201D00123B8E07B681B6803F00203E8
:10252C00002B20D07B681B6803F00403002B05D024
:10253C00594B5B68584A43F4E06353607B681B68F3
:10254C0003F00803002B05D0534B5B68524A43F44D
:10255C0060535360504B5B6823F0F0027B689B68C0
:10256C004D4913434B607B681B6803F00103002B40
:10257C0040D07B685B68012B07D1474B1B6803F489
:10258C000033002B15D101237FE07B685B68022BA5
:10259C0007D1414B1B6803F00073002B09D10123B9
:1025AC0073E03D4B1B6803F00203002B01D10123A8
:1025BC006BE0394B5B6823F003027B685B68364940
:1025CC0013434B60FFF72CFAF8600AE0FFF728FA88
:1025DC000246FB68D31A41F28832934201D9032395
:1025EC0053E02D4B5B6803F00C027B685B689B002F
:1025FC009A42EBD1274B1B6803F007033A689A42C7
:10260C0010D2244B1B6823F0070222493B6813436A
:10261C000B60204B1B6803F007033A689A4201D009
:10262C00012332E07B681B6803F00403002B08D005
:10263C00194B5B6823F4E0627B68DB681649134333
:10264C004B607B681B6803F00803002B09D0124B0E
:10265C005B6823F460527B681B69DB000E491343F3
:10266C004B6000F021F802460B4B5B681B0903F032
:10267C000F030A49CB5C22FA03F3094A1360094B96
:10268C001B681846FFF78AF9002318461037BD4619
:10269C0080BD00BF0020024000100240C02F000887
:1026AC00500000205400002080B487B000AF0023FD
:1026BC00FB600023BB6000237B6100237B60002355
:1026CC003B611E4B5B68FB60FB6803F00C03042B47
:1026DC0002D0082B03D027E0194B3B6127E0FB68A5
:1026EC009B0C03F00F03174AD35C7B60FB6803F46D
:1026FC008033002B10D0114B5B685B0C03F0010393
:10270C00114AD35CBB607B680D4A02FB03F2BB68C9
:10271C00B2FBF3F37B6104E07B680C4A02FB03F32E
:10272C007B617B693B6102E0054B3B6100BF3B6910
:10273C0018461C37BD4680BC704700BF00100240D5
:10274C0000127A00D02F0008E02F000800093D008D
:10275C0080B485B000AF78600A4B1B680A4AA2FBB4
:10276C0003235B0A7A6802FB03F3FB6000BFFB6880
:10277C005A1EFA60002BF9D100BF00BF1437BD46BA
:10278C0080BC704750000020D34D621080B582B0E1
:10279C0000AF78607B68002B01D1012341E07B689E
:1027AC0093F83D30DBB2002B06D17B68002283F816
:1027BC003C207868FEF7BCFF7B68022283F83D2042
:1027CC007B681A687B6804331946104600F056FA89
:1027DC007B68012283F846207B68012283F83E2027
:1027EC007B68012283F83F207B68012283F840201C
:1027FC007B68012283F841207B68012283F8422008
:10280C007B68012283F843207B68012283F84420F3
:10281C007B68012283F845207B68012283F83D20E8
:10282C00002318460837BD4680BD000080B485B033
:10283C0000AF78607B6893F83D30DBB2012B01D0A0
:10284C00012335E07B68022283F83D207B681B68FE
:10285C00DA687B681B6842F00102DA607B681B68EF
:10286C00164A934209D07B681B68B3F1804F04D0A1
:10287C007B681B68124A934211D17B681B689B686A
:10288C0003F00703FB60FB68062B10D07B681B680A
:10289C001A687B681B6842F001021A6007E07B68CB
:1028AC001B681A687B681B6842F001021A600023DF
:1028BC0018461437BD4680BC704700BF002C014041
:1028CC000004004080B584B000AF78607B681B6862
:1028DC00DB68FB607B681B681B69BB60BB6803F033
:1028EC000203002B20D0FB6803F00203002B1BD04B
:1028FC007B681B686FF002021A617B6801221A77F1
:10290C007B681B689B6903F00303002B03D078687A
:10291C0000F098F905E0786800F08BF9786800F021
:10292C009AF97B6800221A77BB6803F00403002B2A
:10293C0020D0FB6803F00403002B1BD07B681B68C2
:10294C006FF004021A617B6802221A777B681B689D
:10295C009B6903F44073002B03D0786800F072F984
:10296C0005E0786800F065F9786800F074F97B6828
:10297C0000221A77BB6803F00803002B20D0FB68F9
:10298C0003F00803002B1BD07B681B686FF0080258
:10299C001A617B6804221A777B681B68DB6903F079
:1029AC000303002B03D0786800F04CF905E078683D
:1029BC0000F03FF9786800F04EF97B6800221A7736
:1029CC00BB6803F01003002B20D0FB6803F010034E
:1029DC00002B1BD07B681B686FF010021A617B68A0
:1029EC0008221A777B681B68DB6903F44073002BA1
:1029FC0003D0786800F026F905E0786800F019F942
:102A0C00786800F028F97B6800221A77BB6803F01D
:102A1C000103002B0CD0FB6803F00103002B07D043
:102A2C007B681B686FF001021A617868FEF70EFC78
:102A3C00BB6803F08003002B0CD0FB6803F0800311
:102A4C00002B07D07B681B686FF080021A617868D6
:102A5C0000F06FFABB6803F04003002B0CD0FB684E
:102A6C0003F04003002B07D07B681B686FF040021B
:102A7C001A61786800F0F8F8BB6803F02003002BAB
:102A8C000CD0FB6803F02003002B07D07B681B687D
:102A9C006FF020021A61786800F042FA00BF10371C
:102AAC00BD4680BD80B584B000AF7860396000232E
:102ABC00FB737B6893F83C30012B01D10223B4E00B
:102ACC007B68012283F83C207B68022283F83D203E
:102ADC007B681B689B68BB60BB6823F07703BB609B
:102AEC00BB6823F47F43BB607B681B68BA689A6041
:102AFC003B681B68B3F5005F3ED0B3F5005F00F296
:102B0C008780B3F5805F00F08680B3F5805F7FD857
:102B1C00702B1AD0702B7BD8602B50D0602B77D8B1
:102B2C00502B3CD0502B73D8402B58D0402B6FD807
:102B3C00302B64D0302B6BD8202B60D0202B67D857
:102B4C00002B5CD0102B5AD062E07B6818683B6875
:102B5C0099683B685A683B68DB6800F06AF97B68E7
:102B6C001B689B68BB60BB6843F07703BB607B68EA
:102B7C001B68BA689A604FE07B6818683B68996874
:102B8C003B685A683B68DB6800F053F97B681B684C
:102B9C009A687B681B6842F480429A603CE07B68D0
:102BAC0018683B6859683B68DB681A4600F0CAF83D
:102BBC007B681B685021184600F021F92CE07B68DB
:102BCC0018683B6859683B68DB681A4600F0E8F8FF
:102BDC007B681B686021184600F011F91CE07B68CB
:102BEC0018683B6859683B68DB681A4600F0AAF81D
:102BFC007B681B684021184600F001F90CE07B68EB
:102C0C001A683B681B681946104600F0F8F803E098
:102C1C000123FB7300E000BF7B68012283F83D2099
:102C2C007B68002283F83C20FB7B18461037BD469E
:102C3C0080BD80B483B000AF786000BF0C37BD4658
:102C4C0080BC704780B483B000AF786000BF0C3795
:102C5C00BD4680BC704780B483B000AF786000BFC5
:102C6C000C37BD4680BC704780B483B000AF786031
:102C7C0000BF0C37BD4680BC7047000080B485B0E7
:102C8C0000AF786039607B681B68FB607B682B4AFF
:102C9C00934207D07B68B3F1804F03D07B68284AFE
:102CAC00934208D1FB6823F07003FB603B685B68C0
:102CBC00FA681343FB607B68204A934207D07B6819
:102CCC00B3F1804F03D07B681D4A934208D1FB6857
:102CDC0023F44073FB603B68DB68FA681343FB60CA
:102CEC00FB6823F080023B685B691343FB607B68E5
:102CFC00FA681A603B689A687B68DA623B681A6803
:102D0C007B689A627B680D4A934203D13B681A69CF
:102D1C007B681A637B6801225A617B681B6903F02C
:102D2C000103002B05D07B681B6923F001027B6833
:102D3C001A6100BF1437BD4680BC7047002C01409F
:102D4C000004004080B487B000AFF860B9607A60CE
:102D5C00FB681B6A7B61FB681B6A23F00102FB6842
:102D6C001A62FB689B693B613B6923F0F0033B6192
:102D7C007B681B013A6913433B617B6923F00A03AF
:102D8C007B617A69BB6813437B61FB683A699A6122
:102D9C00FB687A691A6200BF1C37BD4680BC70475D
:102DAC0080B487B000AFF860B9607A60FB681B6ACA
:102DBC007B61FB681B6A23F01002FB681A62FB68DC
:102DCC009B693B613B6923F470433B617B681B034C
:102DDC003A6913433B617B6923F0A0037B61BB68B9
:102DEC001B017A6913437B61FB683A699A61FB6842
:102DFC007A691A6200BF1C37BD4680BC704780B42C
:102E0C0085B000AF786039607B689B68FB60FB68BD
:102E1C0023F07003FB603A68FB68134343F007032D
:102E2C00FB607B68FA689A6000BF1437BD4680BCB3
:102E3C00704780B487B000AFF860B9607A603B60CF
:102E4C00FB689B687B617B6923F47F437B613B68F8
:102E5C001A027B681A43BB6813437A6913437B617C
:102E6C00FB687A699A6000BF1C37BD4680BC70470E
:102E7C0080B485B000AF786039607B6893F83C30E3
:102E8C00012B01D1022341E07B68012283F83C2015
:102E9C007B68022283F83D207B681B685B68FB60C3
:102EAC007B681B689B68BB60FB6823F07003FB604E
:102EBC003B681B68FA681343FB607B681B68FA6805
:102ECC005A607B681B68144A934209D07B681B6864
:102EDC00B3F1804F04D07B681B68104A93420CD12D
:102EEC00BB6823F08003BB603B685B68BA68134324
:102EFC00BB607B681B68BA689A607B68012283F8A8
:102F0C003D207B68002283F83C20002318461437B0
:102F1C00BD4680BC704700BF002C0140000400403F
:102F2C0080B483B000AF786000BF0C37BD4680BC66
:102F3C00704780B483B000AF786000BF0C37BD46DB
:102F4C0080BC704770B500260C4D0D4C641BA41052
:102F5C00A64209D100F022F800260A4D0A4C641B47
:102F6C00A410A64205D170BD55F8043B9847013614
:102F7C00EEE755F8043B98470136F2E7E42F0008DA
:102F8C00E42F0008E42F0008E82F00080346024451
:102F9C00934200D1704703F8011BF9E7F8B500BF65
:102FAC00F8BC08BC9E467047F8B500BFF8BC08BC1E
:042FBC009E46704776
:102FC00000000000000000000102030406070809D9
:102FD00002030405060708090A0B0C0D0E0F10105A
:042FE00001020000EA
:042FE40031010008AF
:042FE8000D010008CF
:102FEC0001000000000000000000000001000000D3
:102FFC0000000000000000000100000000000000C4
:10300C0000000000010000000000000000000000B3
:10301C00F4010000030000000400000001000000A7
:10302C000500000003000000020000000300000087
:0C303C0000127A001000000001000000EB
:0400000508001931A5
:00000001FF
